{
  "contractName": "WIP",
  "abi": [
    {
      "inputs": [],
      "stateMutability": "nonpayable",
      "type": "constructor"
    },
    {
      "anonymous": false,
      "inputs": [
        {
          "indexed": true,
          "internalType": "address",
          "name": "owner",
          "type": "address"
        },
        {
          "indexed": true,
          "internalType": "address",
          "name": "spender",
          "type": "address"
        },
        {
          "indexed": false,
          "internalType": "uint256",
          "name": "value",
          "type": "uint256"
        }
      ],
      "name": "Approval",
      "type": "event"
    },
    {
      "anonymous": false,
      "inputs": [
        {
          "indexed": true,
          "internalType": "address",
          "name": "delegator",
          "type": "address"
        },
        {
          "indexed": true,
          "internalType": "address",
          "name": "fromDelegate",
          "type": "address"
        },
        {
          "indexed": true,
          "internalType": "address",
          "name": "toDelegate",
          "type": "address"
        }
      ],
      "name": "DelegateChanged",
      "type": "event"
    },
    {
      "anonymous": false,
      "inputs": [
        {
          "indexed": true,
          "internalType": "address",
          "name": "delegate",
          "type": "address"
        },
        {
          "indexed": false,
          "internalType": "uint256",
          "name": "previousBalance",
          "type": "uint256"
        },
        {
          "indexed": false,
          "internalType": "uint256",
          "name": "newBalance",
          "type": "uint256"
        }
      ],
      "name": "DelegateVotesChanged",
      "type": "event"
    },
    {
      "anonymous": false,
      "inputs": [
        {
          "indexed": true,
          "internalType": "address",
          "name": "previousOwner",
          "type": "address"
        },
        {
          "indexed": true,
          "internalType": "address",
          "name": "newOwner",
          "type": "address"
        }
      ],
      "name": "OwnershipTransferred",
      "type": "event"
    },
    {
      "anonymous": false,
      "inputs": [
        {
          "indexed": false,
          "internalType": "address",
          "name": "account",
          "type": "address"
        }
      ],
      "name": "Paused",
      "type": "event"
    },
    {
      "anonymous": false,
      "inputs": [
        {
          "indexed": true,
          "internalType": "address",
          "name": "from",
          "type": "address"
        },
        {
          "indexed": true,
          "internalType": "address",
          "name": "to",
          "type": "address"
        },
        {
          "indexed": false,
          "internalType": "uint256",
          "name": "value",
          "type": "uint256"
        }
      ],
      "name": "Transfer",
      "type": "event"
    },
    {
      "anonymous": false,
      "inputs": [
        {
          "indexed": false,
          "internalType": "address",
          "name": "account",
          "type": "address"
        }
      ],
      "name": "Unpaused",
      "type": "event"
    },
    {
      "inputs": [],
      "name": "DOMAIN_SEPARATOR",
      "outputs": [
        {
          "internalType": "bytes32",
          "name": "",
          "type": "bytes32"
        }
      ],
      "stateMutability": "view",
      "type": "function",
      "constant": true
    },
    {
      "inputs": [
        {
          "internalType": "address",
          "name": "owner",
          "type": "address"
        },
        {
          "internalType": "address",
          "name": "spender",
          "type": "address"
        }
      ],
      "name": "allowance",
      "outputs": [
        {
          "internalType": "uint256",
          "name": "",
          "type": "uint256"
        }
      ],
      "stateMutability": "view",
      "type": "function",
      "constant": true
    },
    {
      "inputs": [
        {
          "internalType": "address",
          "name": "spender",
          "type": "address"
        },
        {
          "internalType": "uint256",
          "name": "amount",
          "type": "uint256"
        }
      ],
      "name": "approve",
      "outputs": [
        {
          "internalType": "bool",
          "name": "",
          "type": "bool"
        }
      ],
      "stateMutability": "nonpayable",
      "type": "function"
    },
    {
      "inputs": [
        {
          "internalType": "address",
          "name": "account",
          "type": "address"
        }
      ],
      "name": "balanceOf",
      "outputs": [
        {
          "internalType": "uint256",
          "name": "",
          "type": "uint256"
        }
      ],
      "stateMutability": "view",
      "type": "function",
      "constant": true
    },
    {
      "inputs": [
        {
          "internalType": "uint256",
          "name": "amount",
          "type": "uint256"
        }
      ],
      "name": "burn",
      "outputs": [],
      "stateMutability": "nonpayable",
      "type": "function"
    },
    {
      "inputs": [
        {
          "internalType": "address",
          "name": "account",
          "type": "address"
        },
        {
          "internalType": "uint256",
          "name": "amount",
          "type": "uint256"
        }
      ],
      "name": "burnFrom",
      "outputs": [],
      "stateMutability": "nonpayable",
      "type": "function"
    },
    {
      "inputs": [
        {
          "internalType": "address",
          "name": "account",
          "type": "address"
        },
        {
          "internalType": "uint32",
          "name": "pos",
          "type": "uint32"
        }
      ],
      "name": "checkpoints",
      "outputs": [
        {
          "components": [
            {
              "internalType": "uint32",
              "name": "fromBlock",
              "type": "uint32"
            },
            {
              "internalType": "uint224",
              "name": "votes",
              "type": "uint224"
            }
          ],
          "internalType": "struct ERC20Votes.Checkpoint",
          "name": "",
          "type": "tuple"
        }
      ],
      "stateMutability": "view",
      "type": "function",
      "constant": true
    },
    {
      "inputs": [],
      "name": "commentThreshold",
      "outputs": [
        {
          "internalType": "uint256",
          "name": "",
          "type": "uint256"
        }
      ],
      "stateMutability": "view",
      "type": "function",
      "constant": true
    },
    {
      "inputs": [],
      "name": "decimals",
      "outputs": [
        {
          "internalType": "uint8",
          "name": "",
          "type": "uint8"
        }
      ],
      "stateMutability": "view",
      "type": "function",
      "constant": true
    },
    {
      "inputs": [
        {
          "internalType": "address",
          "name": "spender",
          "type": "address"
        },
        {
          "internalType": "uint256",
          "name": "subtractedValue",
          "type": "uint256"
        }
      ],
      "name": "decreaseAllowance",
      "outputs": [
        {
          "internalType": "bool",
          "name": "",
          "type": "bool"
        }
      ],
      "stateMutability": "nonpayable",
      "type": "function"
    },
    {
      "inputs": [
        {
          "internalType": "address",
          "name": "delegatee",
          "type": "address"
        }
      ],
      "name": "delegate",
      "outputs": [],
      "stateMutability": "nonpayable",
      "type": "function"
    },
    {
      "inputs": [
        {
          "internalType": "address",
          "name": "delegatee",
          "type": "address"
        },
        {
          "internalType": "uint256",
          "name": "nonce",
          "type": "uint256"
        },
        {
          "internalType": "uint256",
          "name": "expiry",
          "type": "uint256"
        },
        {
          "internalType": "uint8",
          "name": "v",
          "type": "uint8"
        },
        {
          "internalType": "bytes32",
          "name": "r",
          "type": "bytes32"
        },
        {
          "internalType": "bytes32",
          "name": "s",
          "type": "bytes32"
        }
      ],
      "name": "delegateBySig",
      "outputs": [],
      "stateMutability": "nonpayable",
      "type": "function"
    },
    {
      "inputs": [
        {
          "internalType": "address",
          "name": "account",
          "type": "address"
        }
      ],
      "name": "delegates",
      "outputs": [
        {
          "internalType": "address",
          "name": "",
          "type": "address"
        }
      ],
      "stateMutability": "view",
      "type": "function",
      "constant": true
    },
    {
      "inputs": [
        {
          "internalType": "uint256",
          "name": "blockNumber",
          "type": "uint256"
        }
      ],
      "name": "getPastTotalSupply",
      "outputs": [
        {
          "internalType": "uint256",
          "name": "",
          "type": "uint256"
        }
      ],
      "stateMutability": "view",
      "type": "function",
      "constant": true
    },
    {
      "inputs": [
        {
          "internalType": "address",
          "name": "account",
          "type": "address"
        },
        {
          "internalType": "uint256",
          "name": "blockNumber",
          "type": "uint256"
        }
      ],
      "name": "getPastVotes",
      "outputs": [
        {
          "internalType": "uint256",
          "name": "",
          "type": "uint256"
        }
      ],
      "stateMutability": "view",
      "type": "function",
      "constant": true
    },
    {
      "inputs": [
        {
          "internalType": "address",
          "name": "account",
          "type": "address"
        }
      ],
      "name": "getVotes",
      "outputs": [
        {
          "internalType": "uint256",
          "name": "",
          "type": "uint256"
        }
      ],
      "stateMutability": "view",
      "type": "function",
      "constant": true
    },
    {
      "inputs": [
        {
          "internalType": "address",
          "name": "spender",
          "type": "address"
        },
        {
          "internalType": "uint256",
          "name": "addedValue",
          "type": "uint256"
        }
      ],
      "name": "increaseAllowance",
      "outputs": [
        {
          "internalType": "bool",
          "name": "",
          "type": "bool"
        }
      ],
      "stateMutability": "nonpayable",
      "type": "function"
    },
    {
      "inputs": [],
      "name": "name",
      "outputs": [
        {
          "internalType": "string",
          "name": "",
          "type": "string"
        }
      ],
      "stateMutability": "view",
      "type": "function",
      "constant": true
    },
    {
      "inputs": [
        {
          "internalType": "address",
          "name": "owner",
          "type": "address"
        }
      ],
      "name": "nonces",
      "outputs": [
        {
          "internalType": "uint256",
          "name": "",
          "type": "uint256"
        }
      ],
      "stateMutability": "view",
      "type": "function",
      "constant": true
    },
    {
      "inputs": [
        {
          "internalType": "address",
          "name": "account",
          "type": "address"
        }
      ],
      "name": "numCheckpoints",
      "outputs": [
        {
          "internalType": "uint32",
          "name": "",
          "type": "uint32"
        }
      ],
      "stateMutability": "view",
      "type": "function",
      "constant": true
    },
    {
      "inputs": [],
      "name": "owner",
      "outputs": [
        {
          "internalType": "address",
          "name": "",
          "type": "address"
        }
      ],
      "stateMutability": "view",
      "type": "function",
      "constant": true
    },
    {
      "inputs": [],
      "name": "paused",
      "outputs": [
        {
          "internalType": "bool",
          "name": "",
          "type": "bool"
        }
      ],
      "stateMutability": "view",
      "type": "function",
      "constant": true
    },
    {
      "inputs": [
        {
          "internalType": "address",
          "name": "owner",
          "type": "address"
        },
        {
          "internalType": "address",
          "name": "spender",
          "type": "address"
        },
        {
          "internalType": "uint256",
          "name": "value",
          "type": "uint256"
        },
        {
          "internalType": "uint256",
          "name": "deadline",
          "type": "uint256"
        },
        {
          "internalType": "uint8",
          "name": "v",
          "type": "uint8"
        },
        {
          "internalType": "bytes32",
          "name": "r",
          "type": "bytes32"
        },
        {
          "internalType": "bytes32",
          "name": "s",
          "type": "bytes32"
        }
      ],
      "name": "permit",
      "outputs": [],
      "stateMutability": "nonpayable",
      "type": "function"
    },
    {
      "inputs": [],
      "name": "postThreshold",
      "outputs": [
        {
          "internalType": "uint256",
          "name": "",
          "type": "uint256"
        }
      ],
      "stateMutability": "view",
      "type": "function",
      "constant": true
    },
    {
      "inputs": [],
      "name": "renounceOwnership",
      "outputs": [],
      "stateMutability": "nonpayable",
      "type": "function"
    },
    {
      "inputs": [],
      "name": "symbol",
      "outputs": [
        {
          "internalType": "string",
          "name": "",
          "type": "string"
        }
      ],
      "stateMutability": "view",
      "type": "function",
      "constant": true
    },
    {
      "inputs": [],
      "name": "totalSupply",
      "outputs": [
        {
          "internalType": "uint256",
          "name": "",
          "type": "uint256"
        }
      ],
      "stateMutability": "view",
      "type": "function",
      "constant": true
    },
    {
      "inputs": [
        {
          "internalType": "address",
          "name": "recipient",
          "type": "address"
        },
        {
          "internalType": "uint256",
          "name": "amount",
          "type": "uint256"
        }
      ],
      "name": "transfer",
      "outputs": [
        {
          "internalType": "bool",
          "name": "",
          "type": "bool"
        }
      ],
      "stateMutability": "nonpayable",
      "type": "function"
    },
    {
      "inputs": [
        {
          "internalType": "address",
          "name": "sender",
          "type": "address"
        },
        {
          "internalType": "address",
          "name": "recipient",
          "type": "address"
        },
        {
          "internalType": "uint256",
          "name": "amount",
          "type": "uint256"
        }
      ],
      "name": "transferFrom",
      "outputs": [
        {
          "internalType": "bool",
          "name": "",
          "type": "bool"
        }
      ],
      "stateMutability": "nonpayable",
      "type": "function"
    },
    {
      "inputs": [
        {
          "internalType": "address",
          "name": "newOwner",
          "type": "address"
        }
      ],
      "name": "transferOwnership",
      "outputs": [],
      "stateMutability": "nonpayable",
      "type": "function"
    },
    {
      "inputs": [
        {
          "internalType": "uint256",
          "name": "newThreshold",
          "type": "uint256"
        }
      ],
      "name": "changePostThreshold",
      "outputs": [],
      "stateMutability": "nonpayable",
      "type": "function"
    },
    {
      "inputs": [
        {
          "internalType": "uint256",
          "name": "newThreshold",
          "type": "uint256"
        }
      ],
      "name": "changeCommentThreshold",
      "outputs": [],
      "stateMutability": "nonpayable",
      "type": "function"
    },
    {
      "inputs": [
        {
          "internalType": "address",
          "name": "from",
          "type": "address"
        }
      ],
      "name": "canPost",
      "outputs": [
        {
          "internalType": "bool",
          "name": "",
          "type": "bool"
        }
      ],
      "stateMutability": "view",
      "type": "function",
      "constant": true
    },
    {
      "inputs": [
        {
          "internalType": "address",
          "name": "from",
          "type": "address"
        }
      ],
      "name": "canComment",
      "outputs": [
        {
          "internalType": "bool",
          "name": "",
          "type": "bool"
        }
      ],
      "stateMutability": "view",
      "type": "function",
      "constant": true
    },
    {
      "inputs": [],
      "name": "pause",
      "outputs": [],
      "stateMutability": "nonpayable",
      "type": "function"
    },
    {
      "inputs": [],
      "name": "unpause",
      "outputs": [],
      "stateMutability": "nonpayable",
      "type": "function"
    },
    {
      "inputs": [
        {
          "internalType": "address",
          "name": "to",
          "type": "address"
        },
        {
          "internalType": "uint256",
          "name": "amount",
          "type": "uint256"
        }
      ],
      "name": "mint",
      "outputs": [],
      "stateMutability": "nonpayable",
      "type": "function"
    }
  ],
  "bytecode": "0x6101406040527f6e71edae12b1b97f4d1f60370fef10105fa2faae0126114a169c64845d6126c9610120908152503480156200003a57600080fd5b506040518060400160405280600381526020017f5749500000000000000000000000000000000000000000000000000000000000815250806040518060400160405280600181526020017f31000000000000000000000000000000000000000000000000000000000000008152506040518060400160405280600381526020017f57495000000000000000000000000000000000000000000000000000000000008152506040518060400160405280600381526020017f574950000000000000000000000000000000000000000000000000000000000081525081600390805190602001906200012c92919062000d6c565b5080600490805190602001906200014592919062000d6c565b5050506000600560006101000a81548160ff0219169083151502179055506200018362000177620002aa60201b60201c565b620002b260201b60201c565b60008280519060200120905060008280519060200120905060007f8b73c3c69bb8fe3d512ecc4cf759cc79239f7b179b0ffacaa9a75d522b39400f90508260c081815250508160e081815250504660a08181525050620001eb8184846200037860201b60201c565b60808181525050806101008181525050505050505050620002403362000216620003b460201b60201c565b600a62000224919062000fb6565b620f424062000234919062001007565b620003bd60201b60201c565b62000250620003b460201b60201c565b600a6200025e919062000fb6565b60646200026c919062001007565b600a8190555062000282620003b460201b60201c565b600a62000290919062000fb6565b60196200029e919062001007565b600b8190555062001569565b600033905090565b6000600560019054906101000a900473ffffffffffffffffffffffffffffffffffffffff16905081600560016101000a81548173ffffffffffffffffffffffffffffffffffffffff021916908373ffffffffffffffffffffffffffffffffffffffff1602179055508173ffffffffffffffffffffffffffffffffffffffff168173ffffffffffffffffffffffffffffffffffffffff167f8be0079c531659141344cd1fd0a4f28419497f9722a3daafe3b4186f6b6457e060405160405180910390a35050565b6000838383463060405160200162000395959493929190620010d9565b6040516020818303038152906040528051906020012090509392505050565b60006012905090565b620003d48282620003d860201b6200180e1760201c565b5050565b620003ef82826200049660201b6200189b1760201c565b620003ff6200060f60201b60201c565b7bffffffffffffffffffffffffffffffffffffffffffffffffffffffff166200042d6200063360201b60201c565b111562000471576040517f08c379a00000000000000000000000000000000000000000000000000000000081526004016200046890620011bd565b60405180910390fd5b6200049060096200063d60201b620019fb17836200065560201b60201c565b50505050565b600073ffffffffffffffffffffffffffffffffffffffff168273ffffffffffffffffffffffffffffffffffffffff16141562000509576040517f08c379a000000000000000000000000000000000000000000000000000000000815260040162000500906200122f565b60405180910390fd5b6200051d600083836200090660201b60201c565b806002600082825462000531919062001251565b92505081905550806000808473ffffffffffffffffffffffffffffffffffffffff1673ffffffffffffffffffffffffffffffffffffffff168152602001908152602001600020600082825462000588919062001251565b925050819055508173ffffffffffffffffffffffffffffffffffffffff16600073ffffffffffffffffffffffffffffffffffffffff167fddf252ad1be2c89b69c2b068fc378daa952ba7f163c4a11628f55a4df523b3ef83604051620005ef9190620012ae565b60405180910390a36200060b600083836200097660201b60201c565b5050565b60007bffffffffffffffffffffffffffffffffffffffffffffffffffffffff905090565b6000600254905090565b600081836200064d919062001251565b905092915050565b60008060008580549050905060008114620006ca57856001826200067a9190620012cb565b815481106200068e576200068d62001306565b5b9060005260206000200160000160049054906101000a90047bffffffffffffffffffffffffffffffffffffffffffffffffffffffff16620006cd565b60005b7bffffffffffffffffffffffffffffffffffffffffffffffffffffffff169250620006f983858760201c565b91506000811180156200075257504386600183620007189190620012cb565b815481106200072c576200072b62001306565b5b9060005260206000200160000160009054906101000a900463ffffffff1663ffffffff16145b15620007f3576200076e826200099360201b62001a111760201c565b866001836200077e9190620012cb565b8154811062000792576200079162001306565b5b9060005260206000200160000160046101000a8154817bffffffffffffffffffffffffffffffffffffffffffffffffffffffff02191690837bffffffffffffffffffffffffffffffffffffffffffffffffffffffff160217905550620008fd565b856040518060400160405280620008154362000a0160201b62001a7c1760201c565b63ffffffff16815260200162000836856200099360201b62001a111760201c565b7bffffffffffffffffffffffffffffffffffffffffffffffffffffffff168152509080600181540180825580915050600190039060005260206000200160009091909190915060008201518160000160006101000a81548163ffffffff021916908363ffffffff16021790555060208201518160000160046101000a8154817bffffffffffffffffffffffffffffffffffffffffffffffffffffffff02191690837bffffffffffffffffffffffffffffffffffffffffffffffffffffffff16021790555050505b50935093915050565b6200091662000a5760201b60201c565b1562000959576040517f08c379a0000000000000000000000000000000000000000000000000000000008152600401620009509062001385565b60405180910390fd5b6200097183838362000a6e60201b62001acf1760201c565b505050565b6200098e83838362000a7360201b62001ad41760201c565b505050565b60007bffffffffffffffffffffffffffffffffffffffffffffffffffffffff8016821115620009f9576040517f08c379a0000000000000000000000000000000000000000000000000000000008152600401620009f0906200141d565b60405180910390fd5b819050919050565b600063ffffffff801682111562000a4f576040517f08c379a000000000000000000000000000000000000000000000000000000000815260040162000a4690620014b5565b60405180910390fd5b819050919050565b6000600560009054906101000a900460ff16905090565b505050565b62000a8b83838362000ac360201b62001aff1760201c565b62000abe62000aa08462000ac860201b60201c565b62000ab18462000ac860201b60201c565b8362000b3160201b60201c565b505050565b505050565b6000600760008373ffffffffffffffffffffffffffffffffffffffff1673ffffffffffffffffffffffffffffffffffffffff16815260200190815260200160002060009054906101000a900473ffffffffffffffffffffffffffffffffffffffff169050919050565b8173ffffffffffffffffffffffffffffffffffffffff168373ffffffffffffffffffffffffffffffffffffffff161415801562000b6e5750600081115b1562000d4f57600073ffffffffffffffffffffffffffffffffffffffff168373ffffffffffffffffffffffffffffffffffffffff161462000c615760008062000c08600860008773ffffffffffffffffffffffffffffffffffffffff1673ffffffffffffffffffffffffffffffffffffffff16815260200190815260200160002062000d5460201b62001b0417856200065560201b60201c565b915091508473ffffffffffffffffffffffffffffffffffffffff167fdec2bacdd2f05b59de34da9b523dff8be42e5e38e818c82fdb0bae774387a724838360405162000c56929190620014d7565b60405180910390a250505b600073ffffffffffffffffffffffffffffffffffffffff168273ffffffffffffffffffffffffffffffffffffffff161462000d4e5760008062000cf5600860008673ffffffffffffffffffffffffffffffffffffffff1673ffffffffffffffffffffffffffffffffffffffff1681526020019081526020016000206200063d60201b620019fb17856200065560201b60201c565b915091508373ffffffffffffffffffffffffffffffffffffffff167fdec2bacdd2f05b59de34da9b523dff8be42e5e38e818c82fdb0bae774387a724838360405162000d43929190620014d7565b60405180910390a250505b5b505050565b6000818362000d649190620012cb565b905092915050565b82805462000d7a9062001533565b90600052602060002090601f01602090048101928262000d9e576000855562000dea565b82601f1062000db957805160ff191683800117855562000dea565b8280016001018555821562000dea579182015b8281111562000de957825182559160200191906001019062000dcc565b5b50905062000df9919062000dfd565b5090565b5b8082111562000e1857600081600090555060010162000dfe565b5090565b7f4e487b7100000000000000000000000000000000000000000000000000000000600052601160045260246000fd5b60008160011c9050919050565b6000808291508390505b600185111562000eaa5780860481111562000e825762000e8162000e1c565b5b600185161562000e925780820291505b808102905062000ea28562000e4b565b945062000e62565b94509492505050565b60008262000ec5576001905062000f98565b8162000ed5576000905062000f98565b816001811462000eee576002811462000ef95762000f2f565b600191505062000f98565b60ff84111562000f0e5762000f0d62000e1c565b5b8360020a91508482111562000f285762000f2762000e1c565b5b5062000f98565b5060208310610133831016604e8410600b841016171562000f695782820a90508381111562000f635762000f6262000e1c565b5b62000f98565b62000f78848484600162000e58565b9250905081840481111562000f925762000f9162000e1c565b5b81810290505b9392505050565b6000819050919050565b600060ff82169050919050565b600062000fc38262000f9f565b915062000fd08362000fa9565b925062000fff7fffffffffffffffffffffffffffffffffffffffffffffffffffffffffffffffff848462000eb3565b905092915050565b6000620010148262000f9f565b9150620010218362000f9f565b9250817fffffffffffffffffffffffffffffffffffffffffffffffffffffffffffffffff04831182151516156200105d576200105c62000e1c565b5b828202905092915050565b6000819050919050565b6200107d8162001068565b82525050565b6200108e8162000f9f565b82525050565b600073ffffffffffffffffffffffffffffffffffffffff82169050919050565b6000620010c18262001094565b9050919050565b620010d381620010b4565b82525050565b600060a082019050620010f0600083018862001072565b620010ff602083018762001072565b6200110e604083018662001072565b6200111d606083018562001083565b6200112c6080830184620010c8565b9695505050505050565b600082825260208201905092915050565b7f4552433230566f7465733a20746f74616c20737570706c79207269736b73206f60008201527f766572666c6f77696e6720766f74657300000000000000000000000000000000602082015250565b6000620011a560308362001136565b9150620011b28262001147565b604082019050919050565b60006020820190508181036000830152620011d88162001196565b9050919050565b7f45524332303a206d696e7420746f20746865207a65726f206164647265737300600082015250565b600062001217601f8362001136565b91506200122482620011df565b602082019050919050565b600060208201905081810360008301526200124a8162001208565b9050919050565b60006200125e8262000f9f565b91506200126b8362000f9f565b9250827fffffffffffffffffffffffffffffffffffffffffffffffffffffffffffffffff03821115620012a357620012a262000e1c565b5b828201905092915050565b6000602082019050620012c5600083018462001083565b92915050565b6000620012d88262000f9f565b9150620012e58362000f9f565b925082821015620012fb57620012fa62000e1c565b5b828203905092915050565b7f4e487b7100000000000000000000000000000000000000000000000000000000600052603260045260246000fd5b7f5061757361626c653a2070617573656400000000000000000000000000000000600082015250565b60006200136d60108362001136565b91506200137a8262001335565b602082019050919050565b60006020820190508181036000830152620013a0816200135e565b9050919050565b7f53616665436173743a2076616c756520646f65736e27742066697420696e203260008201527f3234206269747300000000000000000000000000000000000000000000000000602082015250565b60006200140560278362001136565b91506200141282620013a7565b604082019050919050565b600060208201905081810360008301526200143881620013f6565b9050919050565b7f53616665436173743a2076616c756520646f65736e27742066697420696e203360008201527f3220626974730000000000000000000000000000000000000000000000000000602082015250565b60006200149d60268362001136565b9150620014aa826200143f565b604082019050919050565b60006020820190508181036000830152620014d0816200148e565b9050919050565b6000604082019050620014ee600083018562001083565b620014fd602083018462001083565b9392505050565b7f4e487b7100000000000000000000000000000000000000000000000000000000600052602260045260246000fd5b600060028204905060018216806200154c57607f821691505b6020821081141562001563576200156262001504565b5b50919050565b60805160a05160c05160e05161010051610120516149dd620015b960003960006113da01526000611fc50152600061200701526000611fe601526000611f7201526000611f9a01526149dd6000f3fe608060405234801561001057600080fd5b50600436106102275760003560e01c8063715018a611610130578063a457c2d7116100b8578063da3a96611161007c578063da3a96611461069e578063dd62ed3e146106ba578063ed25f27c146106ea578063f1127ed814610708578063f2fde38b1461073857610227565b8063a457c2d7146105d6578063a48603db14610606578063a9059cbb14610636578063c3cda52014610666578063d505accf1461068257610227565b80638456cb59116100ff5780638456cb59146105305780638da5cb5b1461053a5780638e539e8c1461055857806395d89b41146105885780639ab24eb0146105a657610227565b8063715018a6146104be57806379a0b20a146104c857806379cc6790146104e45780637ecebe001461050057610227565b80633f4ba83a116101b35780635c19a95c116101825780635c19a95c146103f45780635c975abb1461041057806362d3576b1461042e5780636fcfff451461045e57806370a082311461048e57610227565b80633f4ba83a1461038257806340c10f191461038c57806342966c68146103a8578063587cde1e146103c457610227565b806323b872dd116101fa57806323b872dd146102b6578063313ce567146102e65780633644e5151461030457806339509351146103225780633a46b1a81461035257610227565b806306fdde031461022c578063095ea7b31461024a57806318160ddd1461027a57806318f2bf9014610298575b600080fd5b610234610754565b6040516102419190613083565b60405180910390f35b610264600480360381019061025f919061313e565b6107e6565b6040516102719190613199565b60405180910390f35b610282610804565b60405161028f91906131c3565b60405180910390f35b6102a061080e565b6040516102ad91906131c3565b60405180910390f35b6102d060048036038101906102cb91906131de565b610814565b6040516102dd9190613199565b60405180910390f35b6102ee61090c565b6040516102fb919061324d565b60405180910390f35b61030c610915565b6040516103199190613281565b60405180910390f35b61033c6004803603810190610337919061313e565b610924565b6040516103499190613199565b60405180910390f35b61036c6004803603810190610367919061313e565b6109d0565b60405161037991906131c3565b60405180910390f35b61038a610a64565b005b6103a660048036038101906103a1919061313e565b610aea565b005b6103c260048036038101906103bd919061329c565b610b74565b005b6103de60048036038101906103d991906132c9565b610b88565b6040516103eb9190613305565b60405180910390f35b61040e600480360381019061040991906132c9565b610bf1565b005b610418610c05565b6040516104259190613199565b60405180910390f35b610448600480360381019061044391906132c9565b610c1c565b6040516104559190613199565b60405180910390f35b610478600480360381019061047391906132c9565b610c33565b604051610485919061333f565b60405180910390f35b6104a860048036038101906104a391906132c9565b610c87565b6040516104b591906131c3565b60405180910390f35b6104c6610ccf565b005b6104e260048036038101906104dd919061329c565b610d57565b005b6104fe60048036038101906104f9919061313e565b610dfb565b005b61051a600480360381019061051591906132c9565b610e76565b60405161052791906131c3565b60405180910390f35b610538610ec6565b005b610542610f4c565b60405161054f9190613305565b60405180910390f35b610572600480360381019061056d919061329c565b610f76565b60405161057f91906131c3565b60405180910390f35b610590610fcc565b60405161059d9190613083565b60405180910390f35b6105c060048036038101906105bb91906132c9565b61105e565b6040516105cd91906131c3565b60405180910390f35b6105f060048036038101906105eb919061313e565b61116f565b6040516105fd9190613199565b60405180910390f35b610620600480360381019061061b91906132c9565b61125a565b60405161062d9190613199565b60405180910390f35b610650600480360381019061064b919061313e565b611271565b60405161065d9190613199565b60405180910390f35b610680600480360381019061067b91906133b2565b61128f565b005b61069c6004803603810190610697919061343f565b611393565b005b6106b860048036038101906106b3919061329c565b6114d5565b005b6106d460048036038101906106cf91906134e1565b611579565b6040516106e191906131c3565b60405180910390f35b6106f2611600565b6040516106ff91906131c3565b60405180910390f35b610722600480360381019061071d919061354d565b611606565b60405161072f9190613602565b60405180910390f35b610752600480360381019061074d91906132c9565b611716565b005b6060600380546107639061364c565b80601f016020809104026020016040519081016040528092919081815260200182805461078f9061364c565b80156107dc5780601f106107b1576101008083540402835291602001916107dc565b820191906000526020600020905b8154815290600101906020018083116107bf57829003601f168201915b5050505050905090565b60006107fa6107f3611b1a565b8484611b22565b6001905092915050565b6000600254905090565b600b5481565b6000610821848484611ced565b6000600160008673ffffffffffffffffffffffffffffffffffffffff1673ffffffffffffffffffffffffffffffffffffffff168152602001908152602001600020600061086c611b1a565b73ffffffffffffffffffffffffffffffffffffffff1673ffffffffffffffffffffffffffffffffffffffff168152602001908152602001600020549050828110156108ec576040517f08c379a00000000000000000000000000000000000000000000000000000000081526004016108e3906136f0565b60405180910390fd5b610900856108f8611b1a565b858403611b22565b60019150509392505050565b60006012905090565b600061091f611f6e565b905090565b60006109c6610931611b1a565b84846001600061093f611b1a565b73ffffffffffffffffffffffffffffffffffffffff1673ffffffffffffffffffffffffffffffffffffffff16815260200190815260200160002060008873ffffffffffffffffffffffffffffffffffffffff1673ffffffffffffffffffffffffffffffffffffffff168152602001908152602001600020546109c1919061373f565b611b22565b6001905092915050565b6000438210610a14576040517f08c379a0000000000000000000000000000000000000000000000000000000008152600401610a0b906137e1565b60405180910390fd5b610a5c600860008573ffffffffffffffffffffffffffffffffffffffff1673ffffffffffffffffffffffffffffffffffffffff16815260200190815260200160002083612031565b905092915050565b610a6c611b1a565b73ffffffffffffffffffffffffffffffffffffffff16610a8a610f4c565b73ffffffffffffffffffffffffffffffffffffffff1614610ae0576040517f08c379a0000000000000000000000000000000000000000000000000000000008152600401610ad79061384d565b60405180910390fd5b610ae861213d565b565b610af2611b1a565b73ffffffffffffffffffffffffffffffffffffffff16610b10610f4c565b73ffffffffffffffffffffffffffffffffffffffff1614610b66576040517f08c379a0000000000000000000000000000000000000000000000000000000008152600401610b5d9061384d565b60405180910390fd5b610b7082826121df565b5050565b610b85610b7f611b1a565b826121ed565b50565b6000600760008373ffffffffffffffffffffffffffffffffffffffff1673ffffffffffffffffffffffffffffffffffffffff16815260200190815260200160002060009054906101000a900473ffffffffffffffffffffffffffffffffffffffff169050919050565b610c02610bfc611b1a565b826121fb565b50565b6000600560009054906101000a900460ff16905090565b6000600a54610c2a83610c87565b10159050919050565b6000610c80600860008473ffffffffffffffffffffffffffffffffffffffff1673ffffffffffffffffffffffffffffffffffffffff16815260200190815260200160002080549050611a7c565b9050919050565b60008060008373ffffffffffffffffffffffffffffffffffffffff1673ffffffffffffffffffffffffffffffffffffffff168152602001908152602001600020549050919050565b610cd7611b1a565b73ffffffffffffffffffffffffffffffffffffffff16610cf5610f4c565b73ffffffffffffffffffffffffffffffffffffffff1614610d4b576040517f08c379a0000000000000000000000000000000000000000000000000000000008152600401610d429061384d565b60405180910390fd5b610d556000612315565b565b610d5f611b1a565b73ffffffffffffffffffffffffffffffffffffffff16610d7d610f4c565b73ffffffffffffffffffffffffffffffffffffffff1614610dd3576040517f08c379a0000000000000000000000000000000000000000000000000000000008152600401610dca9061384d565b60405180910390fd5b610ddb61090c565b600a610de791906139a0565b81610df291906139eb565b600a8190555050565b6000610e0e83610e09611b1a565b611579565b905081811015610e53576040517f08c379a0000000000000000000000000000000000000000000000000000000008152600401610e4a90613ab7565b60405180910390fd5b610e6783610e5f611b1a565b848403611b22565b610e7183836121ed565b505050565b6000610ebf600660008473ffffffffffffffffffffffffffffffffffffffff1673ffffffffffffffffffffffffffffffffffffffff1681526020019081526020016000206123db565b9050919050565b610ece611b1a565b73ffffffffffffffffffffffffffffffffffffffff16610eec610f4c565b73ffffffffffffffffffffffffffffffffffffffff1614610f42576040517f08c379a0000000000000000000000000000000000000000000000000000000008152600401610f399061384d565b60405180910390fd5b610f4a6123e9565b565b6000600560019054906101000a900473ffffffffffffffffffffffffffffffffffffffff16905090565b6000438210610fba576040517f08c379a0000000000000000000000000000000000000000000000000000000008152600401610fb1906137e1565b60405180910390fd5b610fc5600983612031565b9050919050565b606060048054610fdb9061364c565b80601f01602080910402602001604051908101604052809291908181526020018280546110079061364c565b80156110545780601f1061102957610100808354040283529160200191611054565b820191906000526020600020905b81548152906001019060200180831161103757829003601f168201915b5050505050905090565b600080600860008473ffffffffffffffffffffffffffffffffffffffff1673ffffffffffffffffffffffffffffffffffffffff1681526020019081526020016000208054905090506000811461114657600860008473ffffffffffffffffffffffffffffffffffffffff1673ffffffffffffffffffffffffffffffffffffffff1681526020019081526020016000206001826110fa9190613ad7565b8154811061110b5761110a613b0b565b5b9060005260206000200160000160049054906101000a90047bffffffffffffffffffffffffffffffffffffffffffffffffffffffff16611149565b60005b7bffffffffffffffffffffffffffffffffffffffffffffffffffffffff16915050919050565b6000806001600061117e611b1a565b73ffffffffffffffffffffffffffffffffffffffff1673ffffffffffffffffffffffffffffffffffffffff16815260200190815260200160002060008573ffffffffffffffffffffffffffffffffffffffff1673ffffffffffffffffffffffffffffffffffffffff1681526020019081526020016000205490508281101561123b576040517f08c379a000000000000000000000000000000000000000000000000000000000815260040161123290613bac565b60405180910390fd5b61124f611246611b1a565b85858403611b22565b600191505092915050565b6000600b5461126883610c87565b10159050919050565b600061128561127e611b1a565b8484611ced565b6001905092915050565b834211156112d2576040517f08c379a00000000000000000000000000000000000000000000000000000000081526004016112c990613c18565b60405180910390fd5b600061133461132c7fe48329057bfd03d55e49b547132e39cffd9c1820ad7b9d4c5307691425d15adf8989896040516020016113119493929190613c38565b6040516020818303038152906040528051906020012061248c565b8585856124a6565b905061133f816124d1565b8614611380576040517f08c379a000000000000000000000000000000000000000000000000000000000815260040161137790613cc9565b60405180910390fd5b61138a81886121fb565b50505050505050565b834211156113d6576040517f08c379a00000000000000000000000000000000000000000000000000000000081526004016113cd90613d35565b60405180910390fd5b60007f00000000000000000000000000000000000000000000000000000000000000008888886114058c6124d1565b8960405160200161141b96959493929190613d55565b604051602081830303815290604052805190602001209050600061143e8261248c565b9050600061144e828787876124a6565b90508973ffffffffffffffffffffffffffffffffffffffff168173ffffffffffffffffffffffffffffffffffffffff16146114be576040517f08c379a00000000000000000000000000000000000000000000000000000000081526004016114b590613e02565b60405180910390fd5b6114c98a8a8a611b22565b50505050505050505050565b6114dd611b1a565b73ffffffffffffffffffffffffffffffffffffffff166114fb610f4c565b73ffffffffffffffffffffffffffffffffffffffff1614611551576040517f08c379a00000000000000000000000000000000000000000000000000000000081526004016115489061384d565b60405180910390fd5b61155961090c565b600a61156591906139a0565b8161157091906139eb565b600b8190555050565b6000600160008473ffffffffffffffffffffffffffffffffffffffff1673ffffffffffffffffffffffffffffffffffffffff16815260200190815260200160002060008373ffffffffffffffffffffffffffffffffffffffff1673ffffffffffffffffffffffffffffffffffffffff16815260200190815260200160002054905092915050565b600a5481565b61160e612fac565b600860008473ffffffffffffffffffffffffffffffffffffffff1673ffffffffffffffffffffffffffffffffffffffff1681526020019081526020016000208263ffffffff168154811061166557611664613b0b565b5b906000526020600020016040518060400160405290816000820160009054906101000a900463ffffffff1663ffffffff1663ffffffff1681526020016000820160049054906101000a90047bffffffffffffffffffffffffffffffffffffffffffffffffffffffff167bffffffffffffffffffffffffffffffffffffffffffffffffffffffff167bffffffffffffffffffffffffffffffffffffffffffffffffffffffff1681525050905092915050565b61171e611b1a565b73ffffffffffffffffffffffffffffffffffffffff1661173c610f4c565b73ffffffffffffffffffffffffffffffffffffffff1614611792576040517f08c379a00000000000000000000000000000000000000000000000000000000081526004016117899061384d565b60405180910390fd5b600073ffffffffffffffffffffffffffffffffffffffff168173ffffffffffffffffffffffffffffffffffffffff161415611802576040517f08c379a00000000000000000000000000000000000000000000000000000000081526004016117f990613e94565b60405180910390fd5b61180b81612315565b50565b611818828261189b565b61182061252f565b7bffffffffffffffffffffffffffffffffffffffffffffffffffffffff16611846610804565b1115611887576040517f08c379a000000000000000000000000000000000000000000000000000000000815260040161187e90613f26565b60405180910390fd5b61189560096119fb83612553565b50505050565b600073ffffffffffffffffffffffffffffffffffffffff168273ffffffffffffffffffffffffffffffffffffffff16141561190b576040517f08c379a000000000000000000000000000000000000000000000000000000000815260040161190290613f92565b60405180910390fd5b611917600083836127cb565b8060026000828254611929919061373f565b92505081905550806000808473ffffffffffffffffffffffffffffffffffffffff1673ffffffffffffffffffffffffffffffffffffffff168152602001908152602001600020600082825461197e919061373f565b925050819055508173ffffffffffffffffffffffffffffffffffffffff16600073ffffffffffffffffffffffffffffffffffffffff167fddf252ad1be2c89b69c2b068fc378daa952ba7f163c4a11628f55a4df523b3ef836040516119e391906131c3565b60405180910390a36119f760008383612823565b5050565b60008183611a09919061373f565b905092915050565b60007bffffffffffffffffffffffffffffffffffffffffffffffffffffffff8016821115611a74576040517f08c379a0000000000000000000000000000000000000000000000000000000008152600401611a6b90614024565b60405180910390fd5b819050919050565b600063ffffffff8016821115611ac7576040517f08c379a0000000000000000000000000000000000000000000000000000000008152600401611abe906140b6565b60405180910390fd5b819050919050565b505050565b611adf838383611aff565b611afa611aeb84610b88565b611af484610b88565b83612833565b505050565b505050565b60008183611b129190613ad7565b905092915050565b600033905090565b600073ffffffffffffffffffffffffffffffffffffffff168373ffffffffffffffffffffffffffffffffffffffff161415611b92576040517f08c379a0000000000000000000000000000000000000000000000000000000008152600401611b8990614148565b60405180910390fd5b600073ffffffffffffffffffffffffffffffffffffffff168273ffffffffffffffffffffffffffffffffffffffff161415611c02576040517f08c379a0000000000000000000000000000000000000000000000000000000008152600401611bf9906141da565b60405180910390fd5b80600160008573ffffffffffffffffffffffffffffffffffffffff1673ffffffffffffffffffffffffffffffffffffffff16815260200190815260200160002060008473ffffffffffffffffffffffffffffffffffffffff1673ffffffffffffffffffffffffffffffffffffffff168152602001908152602001600020819055508173ffffffffffffffffffffffffffffffffffffffff168373ffffffffffffffffffffffffffffffffffffffff167f8c5be1e5ebec7d5bd14f71427d1e84f3dd0314c0f7b2291e5b200ac8c7c3b92583604051611ce091906131c3565b60405180910390a3505050565b600073ffffffffffffffffffffffffffffffffffffffff168373ffffffffffffffffffffffffffffffffffffffff161415611d5d576040517f08c379a0000000000000000000000000000000000000000000000000000000008152600401611d549061426c565b60405180910390fd5b600073ffffffffffffffffffffffffffffffffffffffff168273ffffffffffffffffffffffffffffffffffffffff161415611dcd576040517f08c379a0000000000000000000000000000000000000000000000000000000008152600401611dc4906142fe565b60405180910390fd5b611dd88383836127cb565b60008060008573ffffffffffffffffffffffffffffffffffffffff1673ffffffffffffffffffffffffffffffffffffffff16815260200190815260200160002054905081811015611e5e576040517f08c379a0000000000000000000000000000000000000000000000000000000008152600401611e5590614390565b60405180910390fd5b8181036000808673ffffffffffffffffffffffffffffffffffffffff1673ffffffffffffffffffffffffffffffffffffffff16815260200190815260200160002081905550816000808573ffffffffffffffffffffffffffffffffffffffff1673ffffffffffffffffffffffffffffffffffffffff1681526020019081526020016000206000828254611ef1919061373f565b925050819055508273ffffffffffffffffffffffffffffffffffffffff168473ffffffffffffffffffffffffffffffffffffffff167fddf252ad1be2c89b69c2b068fc378daa952ba7f163c4a11628f55a4df523b3ef84604051611f5591906131c3565b60405180910390a3611f68848484612823565b50505050565b60007f0000000000000000000000000000000000000000000000000000000000000000461415611fc0577f0000000000000000000000000000000000000000000000000000000000000000905061202e565b61202b7f00000000000000000000000000000000000000000000000000000000000000007f00000000000000000000000000000000000000000000000000000000000000007f0000000000000000000000000000000000000000000000000000000000000000612a2c565b90505b90565b6000808380549050905060005b818110156120b05760006120528284612a66565b90508486828154811061206857612067613b0b565b5b9060005260206000200160000160009054906101000a900463ffffffff1663ffffffff16111561209a578092506120aa565b6001816120a7919061373f565b91505b5061203e565b6000821461211257846001836120c69190613ad7565b815481106120d7576120d6613b0b565b5b9060005260206000200160000160049054906101000a90047bffffffffffffffffffffffffffffffffffffffffffffffffffffffff16612115565b60005b7bffffffffffffffffffffffffffffffffffffffffffffffffffffffff169250505092915050565b612145610c05565b612184576040517f08c379a000000000000000000000000000000000000000000000000000000000815260040161217b906143fc565b60405180910390fd5b6000600560006101000a81548160ff0219169083151502179055507f5db9ee0a495bf2e6ff9c91a7834c1ba4fdd244a5e8aa4e537bd38aeae4b073aa6121c8611b1a565b6040516121d59190613305565b60405180910390a1565b6121e9828261180e565b5050565b6121f78282612a8c565b5050565b600061220683610b88565b9050600061221384610c87565b905082600760008673ffffffffffffffffffffffffffffffffffffffff1673ffffffffffffffffffffffffffffffffffffffff16815260200190815260200160002060006101000a81548173ffffffffffffffffffffffffffffffffffffffff021916908373ffffffffffffffffffffffffffffffffffffffff1602179055508273ffffffffffffffffffffffffffffffffffffffff168273ffffffffffffffffffffffffffffffffffffffff168573ffffffffffffffffffffffffffffffffffffffff167f3134e8a2e6d97e929a7e54011ea5485d7d196dd5f0ba4d4ef95803e8e3fc257f60405160405180910390a461230f828483612833565b50505050565b6000600560019054906101000a900473ffffffffffffffffffffffffffffffffffffffff16905081600560016101000a81548173ffffffffffffffffffffffffffffffffffffffff021916908373ffffffffffffffffffffffffffffffffffffffff1602179055508173ffffffffffffffffffffffffffffffffffffffff168173ffffffffffffffffffffffffffffffffffffffff167f8be0079c531659141344cd1fd0a4f28419497f9722a3daafe3b4186f6b6457e060405160405180910390a35050565b600081600001549050919050565b6123f1610c05565b15612431576040517f08c379a000000000000000000000000000000000000000000000000000000000815260040161242890614468565b60405180910390fd5b6001600560006101000a81548160ff0219169083151502179055507f62e78cea01bee320cd4e420270b5ea74000d11b0c9f74754ebdbfc544b05a258612475611b1a565b6040516124829190613305565b60405180910390a1565b600061249f612499611f6e565b83612aaa565b9050919050565b60008060006124b787878787612add565b915091506124c481612bea565b8192505050949350505050565b600080600660008473ffffffffffffffffffffffffffffffffffffffff1673ffffffffffffffffffffffffffffffffffffffff168152602001908152602001600020905061251e816123db565b915061252981612dbf565b50919050565b60007bffffffffffffffffffffffffffffffffffffffffffffffffffffffff905090565b600080600085805490509050600081146125c157856001826125759190613ad7565b8154811061258657612585613b0b565b5b9060005260206000200160000160049054906101000a90047bffffffffffffffffffffffffffffffffffffffffffffffffffffffff166125c4565b60005b7bffffffffffffffffffffffffffffffffffffffffffffffffffffffff1692506125f283858763ffffffff16565b91506000811180156126455750438660018361260e9190613ad7565b8154811061261f5761261e613b0b565b5b9060005260206000200160000160009054906101000a900463ffffffff1663ffffffff16145b156126d25761265382611a11565b866001836126619190613ad7565b8154811061267257612671613b0b565b5b9060005260206000200160000160046101000a8154817bffffffffffffffffffffffffffffffffffffffffffffffffffffffff02191690837bffffffffffffffffffffffffffffffffffffffffffffffffffffffff1602179055506127c2565b8560405180604001604052806126e743611a7c565b63ffffffff1681526020016126fb85611a11565b7bffffffffffffffffffffffffffffffffffffffffffffffffffffffff168152509080600181540180825580915050600190039060005260206000200160009091909190915060008201518160000160006101000a81548163ffffffff021916908363ffffffff16021790555060208201518160000160046101000a8154817bffffffffffffffffffffffffffffffffffffffffffffffffffffffff02191690837bffffffffffffffffffffffffffffffffffffffffffffffffffffffff16021790555050505b50935093915050565b6127d3610c05565b15612813576040517f08c379a000000000000000000000000000000000000000000000000000000000815260040161280a90614468565b60405180910390fd5b61281e838383611acf565b505050565b61282e838383611ad4565b505050565b8173ffffffffffffffffffffffffffffffffffffffff168373ffffffffffffffffffffffffffffffffffffffff161415801561286f5750600081115b15612a2757600073ffffffffffffffffffffffffffffffffffffffff168373ffffffffffffffffffffffffffffffffffffffff161461294d576000806128f6600860008773ffffffffffffffffffffffffffffffffffffffff1673ffffffffffffffffffffffffffffffffffffffff168152602001908152602001600020611b0485612553565b915091508473ffffffffffffffffffffffffffffffffffffffff167fdec2bacdd2f05b59de34da9b523dff8be42e5e38e818c82fdb0bae774387a7248383604051612942929190614488565b60405180910390a250505b600073ffffffffffffffffffffffffffffffffffffffff168273ffffffffffffffffffffffffffffffffffffffff1614612a26576000806129cf600860008673ffffffffffffffffffffffffffffffffffffffff1673ffffffffffffffffffffffffffffffffffffffff1681526020019081526020016000206119fb85612553565b915091508373ffffffffffffffffffffffffffffffffffffffff167fdec2bacdd2f05b59de34da9b523dff8be42e5e38e818c82fdb0bae774387a7248383604051612a1b929190614488565b60405180910390a250505b5b505050565b60008383834630604051602001612a479594939291906144b1565b6040516020818303038152906040528051906020012090509392505050565b60006002828418612a779190614533565b828416612a84919061373f565b905092915050565b612a968282612dd5565b612aa46009611b0483612553565b50505050565b60008282604051602001612abf9291906145dc565b60405160208183030381529060405280519060200120905092915050565b6000807f7fffffffffffffffffffffffffffffff5d576e7357a4501ddfe92f46681b20a08360001c1115612b18576000600391509150612be1565b601b8560ff1614158015612b305750601c8560ff1614155b15612b42576000600491509150612be1565b600060018787878760405160008152602001604052604051612b679493929190614613565b6020604051602081039080840390855afa158015612b89573d6000803e3d6000fd5b505050602060405103519050600073ffffffffffffffffffffffffffffffffffffffff168173ffffffffffffffffffffffffffffffffffffffff161415612bd857600060019250925050612be1565b80600092509250505b94509492505050565b60006004811115612bfe57612bfd614658565b5b816004811115612c1157612c10614658565b5b1415612c1c57612dbc565b60016004811115612c3057612c2f614658565b5b816004811115612c4357612c42614658565b5b1415612c84576040517f08c379a0000000000000000000000000000000000000000000000000000000008152600401612c7b906146d3565b60405180910390fd5b60026004811115612c9857612c97614658565b5b816004811115612cab57612caa614658565b5b1415612cec576040517f08c379a0000000000000000000000000000000000000000000000000000000008152600401612ce39061473f565b60405180910390fd5b60036004811115612d0057612cff614658565b5b816004811115612d1357612d12614658565b5b1415612d54576040517f08c379a0000000000000000000000000000000000000000000000000000000008152600401612d4b906147d1565b60405180910390fd5b600480811115612d6757612d66614658565b5b816004811115612d7a57612d79614658565b5b1415612dbb576040517f08c379a0000000000000000000000000000000000000000000000000000000008152600401612db290614863565b60405180910390fd5b5b50565b6001816000016000828254019250508190555050565b600073ffffffffffffffffffffffffffffffffffffffff168273ffffffffffffffffffffffffffffffffffffffff161415612e45576040517f08c379a0000000000000000000000000000000000000000000000000000000008152600401612e3c906148f5565b60405180910390fd5b612e51826000836127cb565b60008060008473ffffffffffffffffffffffffffffffffffffffff1673ffffffffffffffffffffffffffffffffffffffff16815260200190815260200160002054905081811015612ed7576040517f08c379a0000000000000000000000000000000000000000000000000000000008152600401612ece90614987565b60405180910390fd5b8181036000808573ffffffffffffffffffffffffffffffffffffffff1673ffffffffffffffffffffffffffffffffffffffff168152602001908152602001600020819055508160026000828254612f2e9190613ad7565b92505081905550600073ffffffffffffffffffffffffffffffffffffffff168373ffffffffffffffffffffffffffffffffffffffff167fddf252ad1be2c89b69c2b068fc378daa952ba7f163c4a11628f55a4df523b3ef84604051612f9391906131c3565b60405180910390a3612fa783600084612823565b505050565b6040518060400160405280600063ffffffff16815260200160007bffffffffffffffffffffffffffffffffffffffffffffffffffffffff1681525090565b600081519050919050565b600082825260208201905092915050565b60005b83811015613024578082015181840152602081019050613009565b83811115613033576000848401525b50505050565b6000601f19601f8301169050919050565b600061305582612fea565b61305f8185612ff5565b935061306f818560208601613006565b61307881613039565b840191505092915050565b6000602082019050818103600083015261309d818461304a565b905092915050565b600080fd5b600073ffffffffffffffffffffffffffffffffffffffff82169050919050565b60006130d5826130aa565b9050919050565b6130e5816130ca565b81146130f057600080fd5b50565b600081359050613102816130dc565b92915050565b6000819050919050565b61311b81613108565b811461312657600080fd5b50565b60008135905061313881613112565b92915050565b60008060408385031215613155576131546130a5565b5b6000613163858286016130f3565b925050602061317485828601613129565b9150509250929050565b60008115159050919050565b6131938161317e565b82525050565b60006020820190506131ae600083018461318a565b92915050565b6131bd81613108565b82525050565b60006020820190506131d860008301846131b4565b92915050565b6000806000606084860312156131f7576131f66130a5565b5b6000613205868287016130f3565b9350506020613216868287016130f3565b925050604061322786828701613129565b9150509250925092565b600060ff82169050919050565b61324781613231565b82525050565b6000602082019050613262600083018461323e565b92915050565b6000819050919050565b61327b81613268565b82525050565b60006020820190506132966000830184613272565b92915050565b6000602082840312156132b2576132b16130a5565b5b60006132c084828501613129565b91505092915050565b6000602082840312156132df576132de6130a5565b5b60006132ed848285016130f3565b91505092915050565b6132ff816130ca565b82525050565b600060208201905061331a60008301846132f6565b92915050565b600063ffffffff82169050919050565b61333981613320565b82525050565b60006020820190506133546000830184613330565b92915050565b61336381613231565b811461336e57600080fd5b50565b6000813590506133808161335a565b92915050565b61338f81613268565b811461339a57600080fd5b50565b6000813590506133ac81613386565b92915050565b60008060008060008060c087890312156133cf576133ce6130a5565b5b60006133dd89828a016130f3565b96505060206133ee89828a01613129565b95505060406133ff89828a01613129565b945050606061341089828a01613371565b935050608061342189828a0161339d565b92505060a061343289828a0161339d565b9150509295509295509295565b600080600080600080600060e0888a03121561345e5761345d6130a5565b5b600061346c8a828b016130f3565b975050602061347d8a828b016130f3565b965050604061348e8a828b01613129565b955050606061349f8a828b01613129565b94505060806134b08a828b01613371565b93505060a06134c18a828b0161339d565b92505060c06134d28a828b0161339d565b91505092959891949750929550565b600080604083850312156134f8576134f76130a5565b5b6000613506858286016130f3565b9250506020613517858286016130f3565b9150509250929050565b61352a81613320565b811461353557600080fd5b50565b60008135905061354781613521565b92915050565b60008060408385031215613564576135636130a5565b5b6000613572858286016130f3565b925050602061358385828601613538565b9150509250929050565b61359681613320565b82525050565b60007bffffffffffffffffffffffffffffffffffffffffffffffffffffffff82169050919050565b6135cd8161359c565b82525050565b6040820160008201516135e9600085018261358d565b5060208201516135fc60208501826135c4565b50505050565b600060408201905061361760008301846135d3565b92915050565b7f4e487b7100000000000000000000000000000000000000000000000000000000600052602260045260246000fd5b6000600282049050600182168061366457607f821691505b602082108114156136785761367761361d565b5b50919050565b7f45524332303a207472616e7366657220616d6f756e742065786365656473206160008201527f6c6c6f77616e6365000000000000000000000000000000000000000000000000602082015250565b60006136da602883612ff5565b91506136e58261367e565b604082019050919050565b60006020820190508181036000830152613709816136cd565b9050919050565b7f4e487b7100000000000000000000000000000000000000000000000000000000600052601160045260246000fd5b600061374a82613108565b915061375583613108565b9250827fffffffffffffffffffffffffffffffffffffffffffffffffffffffffffffffff0382111561378a57613789613710565b5b828201905092915050565b7f4552433230566f7465733a20626c6f636b206e6f7420796574206d696e656400600082015250565b60006137cb601f83612ff5565b91506137d682613795565b602082019050919050565b600060208201905081810360008301526137fa816137be565b9050919050565b7f4f776e61626c653a2063616c6c6572206973206e6f7420746865206f776e6572600082015250565b6000613837602083612ff5565b915061384282613801565b602082019050919050565b600060208201905081810360008301526138668161382a565b9050919050565b60008160011c9050919050565b6000808291508390505b60018511156138c4578086048111156138a05761389f613710565b5b60018516156138af5780820291505b80810290506138bd8561386d565b9450613884565b94509492505050565b6000826138dd5760019050613999565b816138eb5760009050613999565b8160018114613901576002811461390b5761393a565b6001915050613999565b60ff84111561391d5761391c613710565b5b8360020a91508482111561393457613933613710565b5b50613999565b5060208310610133831016604e8410600b841016171561396f5782820a90508381111561396a57613969613710565b5b613999565b61397c848484600161387a565b9250905081840481111561399357613992613710565b5b81810290505b9392505050565b60006139ab82613108565b91506139b683613231565b92506139e37fffffffffffffffffffffffffffffffffffffffffffffffffffffffffffffffff84846138cd565b905092915050565b60006139f682613108565b9150613a0183613108565b9250817fffffffffffffffffffffffffffffffffffffffffffffffffffffffffffffffff0483118215151615613a3a57613a39613710565b5b828202905092915050565b7f45524332303a206275726e20616d6f756e74206578636565647320616c6c6f7760008201527f616e636500000000000000000000000000000000000000000000000000000000602082015250565b6000613aa1602483612ff5565b9150613aac82613a45565b604082019050919050565b60006020820190508181036000830152613ad081613a94565b9050919050565b6000613ae282613108565b9150613aed83613108565b925082821015613b0057613aff613710565b5b828203905092915050565b7f4e487b7100000000000000000000000000000000000000000000000000000000600052603260045260246000fd5b7f45524332303a2064656372656173656420616c6c6f77616e63652062656c6f7760008201527f207a65726f000000000000000000000000000000000000000000000000000000602082015250565b6000613b96602583612ff5565b9150613ba182613b3a565b604082019050919050565b60006020820190508181036000830152613bc581613b89565b9050919050565b7f4552433230566f7465733a207369676e61747572652065787069726564000000600082015250565b6000613c02601d83612ff5565b9150613c0d82613bcc565b602082019050919050565b60006020820190508181036000830152613c3181613bf5565b9050919050565b6000608082019050613c4d6000830187613272565b613c5a60208301866132f6565b613c6760408301856131b4565b613c7460608301846131b4565b95945050505050565b7f4552433230566f7465733a20696e76616c6964206e6f6e636500000000000000600082015250565b6000613cb3601983612ff5565b9150613cbe82613c7d565b602082019050919050565b60006020820190508181036000830152613ce281613ca6565b9050919050565b7f45524332305065726d69743a206578706972656420646561646c696e65000000600082015250565b6000613d1f601d83612ff5565b9150613d2a82613ce9565b602082019050919050565b60006020820190508181036000830152613d4e81613d12565b9050919050565b600060c082019050613d6a6000830189613272565b613d7760208301886132f6565b613d8460408301876132f6565b613d9160608301866131b4565b613d9e60808301856131b4565b613dab60a08301846131b4565b979650505050505050565b7f45524332305065726d69743a20696e76616c6964207369676e61747572650000600082015250565b6000613dec601e83612ff5565b9150613df782613db6565b602082019050919050565b60006020820190508181036000830152613e1b81613ddf565b9050919050565b7f4f776e61626c653a206e6577206f776e657220697320746865207a65726f206160008201527f6464726573730000000000000000000000000000000000000000000000000000602082015250565b6000613e7e602683612ff5565b9150613e8982613e22565b604082019050919050565b60006020820190508181036000830152613ead81613e71565b9050919050565b7f4552433230566f7465733a20746f74616c20737570706c79207269736b73206f60008201527f766572666c6f77696e6720766f74657300000000000000000000000000000000602082015250565b6000613f10603083612ff5565b9150613f1b82613eb4565b604082019050919050565b60006020820190508181036000830152613f3f81613f03565b9050919050565b7f45524332303a206d696e7420746f20746865207a65726f206164647265737300600082015250565b6000613f7c601f83612ff5565b9150613f8782613f46565b602082019050919050565b60006020820190508181036000830152613fab81613f6f565b9050919050565b7f53616665436173743a2076616c756520646f65736e27742066697420696e203260008201527f3234206269747300000000000000000000000000000000000000000000000000602082015250565b600061400e602783612ff5565b915061401982613fb2565b604082019050919050565b6000602082019050818103600083015261403d81614001565b9050919050565b7f53616665436173743a2076616c756520646f65736e27742066697420696e203360008201527f3220626974730000000000000000000000000000000000000000000000000000602082015250565b60006140a0602683612ff5565b91506140ab82614044565b604082019050919050565b600060208201905081810360008301526140cf81614093565b9050919050565b7f45524332303a20617070726f76652066726f6d20746865207a65726f2061646460008201527f7265737300000000000000000000000000000000000000000000000000000000602082015250565b6000614132602483612ff5565b915061413d826140d6565b604082019050919050565b6000602082019050818103600083015261416181614125565b9050919050565b7f45524332303a20617070726f766520746f20746865207a65726f20616464726560008201527f7373000000000000000000000000000000000000000000000000000000000000602082015250565b60006141c4602283612ff5565b91506141cf82614168565b604082019050919050565b600060208201905081810360008301526141f3816141b7565b9050919050565b7f45524332303a207472616e736665722066726f6d20746865207a65726f20616460008201527f6472657373000000000000000000000000000000000000000000000000000000602082015250565b6000614256602583612ff5565b9150614261826141fa565b604082019050919050565b6000602082019050818103600083015261428581614249565b9050919050565b7f45524332303a207472616e7366657220746f20746865207a65726f206164647260008201527f6573730000000000000000000000000000000000000000000000000000000000602082015250565b60006142e8602383612ff5565b91506142f38261428c565b604082019050919050565b60006020820190508181036000830152614317816142db565b9050919050565b7f45524332303a207472616e7366657220616d6f756e742065786365656473206260008201527f616c616e63650000000000000000000000000000000000000000000000000000602082015250565b600061437a602683612ff5565b91506143858261431e565b604082019050919050565b600060208201905081810360008301526143a98161436d565b9050919050565b7f5061757361626c653a206e6f7420706175736564000000000000000000000000600082015250565b60006143e6601483612ff5565b91506143f1826143b0565b602082019050919050565b60006020820190508181036000830152614415816143d9565b9050919050565b7f5061757361626c653a2070617573656400000000000000000000000000000000600082015250565b6000614452601083612ff5565b915061445d8261441c565b602082019050919050565b6000602082019050818103600083015261448181614445565b9050919050565b600060408201905061449d60008301856131b4565b6144aa60208301846131b4565b9392505050565b600060a0820190506144c66000830188613272565b6144d36020830187613272565b6144e06040830186613272565b6144ed60608301856131b4565b6144fa60808301846132f6565b9695505050505050565b7f4e487b7100000000000000000000000000000000000000000000000000000000600052601260045260246000fd5b600061453e82613108565b915061454983613108565b92508261455957614558614504565b5b828204905092915050565b600081905092915050565b7f1901000000000000000000000000000000000000000000000000000000000000600082015250565b60006145a5600283614564565b91506145b08261456f565b600282019050919050565b6000819050919050565b6145d66145d182613268565b6145bb565b82525050565b60006145e782614598565b91506145f382856145c5565b60208201915061460382846145c5565b6020820191508190509392505050565b60006080820190506146286000830187613272565b614635602083018661323e565b6146426040830185613272565b61464f6060830184613272565b95945050505050565b7f4e487b7100000000000000000000000000000000000000000000000000000000600052602160045260246000fd5b7f45434453413a20696e76616c6964207369676e61747572650000000000000000600082015250565b60006146bd601883612ff5565b91506146c882614687565b602082019050919050565b600060208201905081810360008301526146ec816146b0565b9050919050565b7f45434453413a20696e76616c6964207369676e6174757265206c656e67746800600082015250565b6000614729601f83612ff5565b9150614734826146f3565b602082019050919050565b600060208201905081810360008301526147588161471c565b9050919050565b7f45434453413a20696e76616c6964207369676e6174757265202773272076616c60008201527f7565000000000000000000000000000000000000000000000000000000000000602082015250565b60006147bb602283612ff5565b91506147c68261475f565b604082019050919050565b600060208201905081810360008301526147ea816147ae565b9050919050565b7f45434453413a20696e76616c6964207369676e6174757265202776272076616c60008201527f7565000000000000000000000000000000000000000000000000000000000000602082015250565b600061484d602283612ff5565b9150614858826147f1565b604082019050919050565b6000602082019050818103600083015261487c81614840565b9050919050565b7f45524332303a206275726e2066726f6d20746865207a65726f2061646472657360008201527f7300000000000000000000000000000000000000000000000000000000000000602082015250565b60006148df602183612ff5565b91506148ea82614883565b604082019050919050565b6000602082019050818103600083015261490e816148d2565b9050919050565b7f45524332303a206275726e20616d6f756e7420657863656564732062616c616e60008201527f6365000000000000000000000000000000000000000000000000000000000000602082015250565b6000614971602283612ff5565b915061497c82614915565b604082019050919050565b600060208201905081810360008301526149a081614964565b905091905056fea26469706673582212204d2020172f9c150b026f9494350cd2e58484645c6a4ebd703897b70d0bba4ae664736f6c63430008090033",
  "immutableReferences": {
    "1580": [
      {
        "length": 32,
        "start": 5082
      }
    ],
    "2226": [
      {
        "length": 32,
        "start": 8090
      }
    ],
    "2228": [
      {
        "length": 32,
        "start": 8050
      }
    ],
    "2230": [
      {
        "length": 32,
        "start": 8166
      }
    ],
    "2232": [
      {
        "length": 32,
        "start": 8199
      }
    ],
    "2234": [
      {
        "length": 32,
        "start": 8133
      }
    ]
  },
  "source": "// SPDX-License-Identifier: MIT\npragma solidity ^0.8.2;\n\nimport \"@openzeppelin/contracts/token/ERC20/ERC20.sol\";\nimport \"@openzeppelin/contracts/token/ERC20/extensions/ERC20Burnable.sol\";\nimport \"@openzeppelin/contracts/security/Pausable.sol\";\nimport \"@openzeppelin/contracts/access/Ownable.sol\";\nimport \"@openzeppelin/contracts/token/ERC20/extensions/draft-ERC20Permit.sol\";\nimport \"@openzeppelin/contracts/token/ERC20/extensions/ERC20Votes.sol\";\n\n/// @custom:security-contact rik@superhi.com\ncontract WIP is ERC20, ERC20Burnable, Pausable, Ownable, ERC20Permit, ERC20Votes {\n    \n    uint public postThreshold;\n    uint public commentThreshold;\n    \n    constructor() ERC20(\"WIP\", \"WIP\") ERC20Permit(\"WIP\") {\n        _mint(msg.sender, 1000000 * 10 ** decimals());\n        postThreshold = 100 * 10 ** decimals();\n        commentThreshold = 25 * 10 ** decimals();\n    }\n\n    function changePostThreshold (uint newThreshold) public onlyOwner {\n      postThreshold = newThreshold * 10 ** decimals();\n    }\n\n    function changeCommentThreshold (uint newThreshold) public onlyOwner {\n      commentThreshold = newThreshold * 10 ** decimals();\n    }\n\n    function canPost (address from) public view returns (bool) {\n      return balanceOf(from) >= postThreshold;\n    }\n\n    function canComment (address from) public view returns (bool) {\n      return balanceOf(from) >= commentThreshold;\n    }\n\n    function pause() public onlyOwner {\n        _pause();\n    }\n\n    function unpause() public onlyOwner {\n        _unpause();\n    }\n\n    function mint(address to, uint256 amount) public onlyOwner {\n        _mint(to, amount);\n    }\n\n    function _beforeTokenTransfer(address from, address to, uint256 amount)\n        internal\n        whenNotPaused\n        override\n    {\n        super._beforeTokenTransfer(from, to, amount);\n    }\n\n    // The following functions are overrides required by Solidity.\n\n    function _afterTokenTransfer(address from, address to, uint256 amount)\n        internal\n        override(ERC20, ERC20Votes)\n    {\n        super._afterTokenTransfer(from, to, amount);\n    }\n\n    function _mint(address to, uint256 amount)\n        internal\n        override(ERC20, ERC20Votes)\n    {\n        super._mint(to, amount);\n    }\n\n    function _burn(address account, uint256 amount)\n        internal\n        override(ERC20, ERC20Votes)\n    {\n        super._burn(account, amount);\n    }\n}\n\n",
  "sourcePath": "/Users/mathewstokes/Desktop/w-i-p 2/final/contracts/WIP.sol",
  "compiler": {
    "name": "solc",
    "version": "0.8.9+commit.e5eed63a.Emscripten.clang"
  },
  "schemaVersion": "3.4.4",
  "updatedAt": "2022-03-06T10:20:57.682Z",
  "networkType": "ethereum",
  "devdoc": {
    "custom:security-contact": "rik@superhi.com",
    "kind": "dev",
    "methods": {
      "DOMAIN_SEPARATOR()": {
        "details": "See {IERC20Permit-DOMAIN_SEPARATOR}."
      },
      "allowance(address,address)": {
        "details": "See {IERC20-allowance}."
      },
      "approve(address,uint256)": {
        "details": "See {IERC20-approve}. Requirements: - `spender` cannot be the zero address."
      },
      "balanceOf(address)": {
        "details": "See {IERC20-balanceOf}."
      },
      "burn(uint256)": {
        "details": "Destroys `amount` tokens from the caller. See {ERC20-_burn}."
      },
      "burnFrom(address,uint256)": {
        "details": "Destroys `amount` tokens from `account`, deducting from the caller's allowance. See {ERC20-_burn} and {ERC20-allowance}. Requirements: - the caller must have allowance for ``accounts``'s tokens of at least `amount`."
      },
      "checkpoints(address,uint32)": {
        "details": "Get the `pos`-th checkpoint for `account`."
      },
      "decimals()": {
        "details": "Returns the number of decimals used to get its user representation. For example, if `decimals` equals `2`, a balance of `505` tokens should be displayed to a user as `5.05` (`505 / 10 ** 2`). Tokens usually opt for a value of 18, imitating the relationship between Ether and Wei. This is the value {ERC20} uses, unless this function is overridden; NOTE: This information is only used for _display_ purposes: it in no way affects any of the arithmetic of the contract, including {IERC20-balanceOf} and {IERC20-transfer}."
      },
      "decreaseAllowance(address,uint256)": {
        "details": "Atomically decreases the allowance granted to `spender` by the caller. This is an alternative to {approve} that can be used as a mitigation for problems described in {IERC20-approve}. Emits an {Approval} event indicating the updated allowance. Requirements: - `spender` cannot be the zero address. - `spender` must have allowance for the caller of at least `subtractedValue`."
      },
      "delegate(address)": {
        "details": "Delegate votes from the sender to `delegatee`."
      },
      "delegateBySig(address,uint256,uint256,uint8,bytes32,bytes32)": {
        "details": "Delegates votes from signer to `delegatee`"
      },
      "delegates(address)": {
        "details": "Get the address `account` is currently delegating to."
      },
      "getPastTotalSupply(uint256)": {
        "details": "Retrieve the `totalSupply` at the end of `blockNumber`. Note, this value is the sum of all balances. It is but NOT the sum of all the delegated votes! Requirements: - `blockNumber` must have been already mined"
      },
      "getPastVotes(address,uint256)": {
        "details": "Retrieve the number of votes for `account` at the end of `blockNumber`. Requirements: - `blockNumber` must have been already mined"
      },
      "getVotes(address)": {
        "details": "Gets the current votes balance for `account`"
      },
      "increaseAllowance(address,uint256)": {
        "details": "Atomically increases the allowance granted to `spender` by the caller. This is an alternative to {approve} that can be used as a mitigation for problems described in {IERC20-approve}. Emits an {Approval} event indicating the updated allowance. Requirements: - `spender` cannot be the zero address."
      },
      "name()": {
        "details": "Returns the name of the token."
      },
      "nonces(address)": {
        "details": "See {IERC20Permit-nonces}."
      },
      "numCheckpoints(address)": {
        "details": "Get number of checkpoints for `account`."
      },
      "owner()": {
        "details": "Returns the address of the current owner."
      },
      "paused()": {
        "details": "Returns true if the contract is paused, and false otherwise."
      },
      "permit(address,address,uint256,uint256,uint8,bytes32,bytes32)": {
        "details": "See {IERC20Permit-permit}."
      },
      "renounceOwnership()": {
        "details": "Leaves the contract without owner. It will not be possible to call `onlyOwner` functions anymore. Can only be called by the current owner. NOTE: Renouncing ownership will leave the contract without an owner, thereby removing any functionality that is only available to the owner."
      },
      "symbol()": {
        "details": "Returns the symbol of the token, usually a shorter version of the name."
      },
      "totalSupply()": {
        "details": "See {IERC20-totalSupply}."
      },
      "transfer(address,uint256)": {
        "details": "See {IERC20-transfer}. Requirements: - `recipient` cannot be the zero address. - the caller must have a balance of at least `amount`."
      },
      "transferFrom(address,address,uint256)": {
        "details": "See {IERC20-transferFrom}. Emits an {Approval} event indicating the updated allowance. This is not required by the EIP. See the note at the beginning of {ERC20}. Requirements: - `sender` and `recipient` cannot be the zero address. - `sender` must have a balance of at least `amount`. - the caller must have allowance for ``sender``'s tokens of at least `amount`."
      },
      "transferOwnership(address)": {
        "details": "Transfers ownership of the contract to a new account (`newOwner`). Can only be called by the current owner."
      }
    },
    "version": 1
  },
  "userdoc": {
    "kind": "user",
    "methods": {},
    "version": 1
  }
}